{
  "contractName": "CovidVacPass",
  "abi": [
    {
      "constant": true,
      "inputs": [],
      "name": "VacPassCount",
      "outputs": [
        {
          "name": "",
          "type": "uint256"
        }
      ],
      "payable": false,
      "stateMutability": "view",
      "type": "function",
      "signature": "0x20fbcbaf"
    },
    {
      "constant": true,
      "inputs": [
        {
          "name": "",
          "type": "uint256"
        }
      ],
      "name": "passes",
      "outputs": [
        {
          "name": "id",
          "type": "uint256"
        },
        {
          "name": "content",
          "type": "string"
        }
      ],
      "payable": false,
      "stateMutability": "view",
      "type": "function",
      "signature": "0x6e321ce4"
    },
    {
      "inputs": [],
      "payable": false,
      "stateMutability": "nonpayable",
      "type": "constructor",
      "signature": "constructor"
    },
    {
      "constant": false,
      "inputs": [
        {
          "name": "_pass",
          "type": "string"
        }
      ],
      "name": "addPass",
      "outputs": [],
      "payable": false,
      "stateMutability": "nonpayable",
      "type": "function",
      "signature": "0x4c471ecc"
    },
    {
      "constant": true,
      "inputs": [
        {
          "name": "_content",
          "type": "string"
        }
      ],
      "name": "scanForPass",
      "outputs": [
        {
          "name": "",
          "type": "bool"
        }
      ],
      "payable": false,
      "stateMutability": "view",
      "type": "function",
      "signature": "0xd15ca638"
    },
    {
      "constant": true,
      "inputs": [
        {
          "name": "a",
          "type": "string"
        },
        {
          "name": "b",
          "type": "string"
        }
      ],
      "name": "compareStrings",
      "outputs": [
        {
          "name": "",
          "type": "bool"
        }
      ],
      "payable": false,
      "stateMutability": "view",
      "type": "function",
      "signature": "0xbed34bba"
    }
  ],
  "bytecode": "0x60806040526000805534801561001457600080fd5b506100496103e0604051908101604052806103a381526020016109c36103a3913961004e640100000000026401000000009004565b61015c565b6040805190810160405280600054815260200182815250600160008054815260200190815260200160002060008201518160000155602082015181600101908051906020019061009f9291906100b7565b50905050600080815480929190600101919050555050565b828054600181600116156101000203166002900490600052602060002090601f016020900481019282601f106100f857805160ff1916838001178555610126565b82800160010185558215610126579182015b8281111561012557825182559160200191906001019061010a565b5b5090506101339190610137565b5090565b61015991905b8082111561015557600081600090555060010161013d565b5090565b90565b6108588061016b6000396000f3fe608060405260043610610067576000357c01000000000000000000000000000000000000000000000000000000009004806320fbcbaf1461006c5780634c471ecc146100975780636e321ce41461015f578063bed34bba1461021a578063d15ca63814610391575b600080fd5b34801561007857600080fd5b50610081610471565b6040518082815260200191505060405180910390f35b3480156100a357600080fd5b5061015d600480360360208110156100ba57600080fd5b81019080803590602001906401000000008111156100d757600080fd5b8201836020820111156100e957600080fd5b8035906020019184600183028401116401000000008311171561010b57600080fd5b91908080601f016020809104026020016040519081016040528093929190818152602001838380828437600081840152601f19601f820116905080830192505050505050509192919290505050610477565b005b34801561016b57600080fd5b506101986004803603602081101561018257600080fd5b81019080803590602001909291905050506104e0565b6040518083815260200180602001828103825283818151815260200191508051906020019080838360005b838110156101de5780820151818401526020810190506101c3565b50505050905090810190601f16801561020b5780820380516001836020036101000a031916815260200191505b50935050505060405180910390f35b34801561022657600080fd5b506103776004803603604081101561023d57600080fd5b810190808035906020019064010000000081111561025a57600080fd5b82018360208201111561026c57600080fd5b8035906020019184600183028401116401000000008311171561028e57600080fd5b91908080601f016020809104026020016040519081016040528093929190818152602001838380828437600081840152601f19601f820116905080830192505050505050509192919290803590602001906401000000008111156102f157600080fd5b82018360208201111561030357600080fd5b8035906020019184600183028401116401000000008311171561032557600080fd5b91908080601f016020809104026020016040519081016040528093929190818152602001838380828437600081840152601f19601f82011690508083019250505050505050919291929050505061059c565b604051808215151515815260200191505060405180910390f35b34801561039d57600080fd5b50610457600480360360208110156103b457600080fd5b81019080803590602001906401000000008111156103d157600080fd5b8201836020820111156103e357600080fd5b8035906020019184600183028401116401000000008311171561040557600080fd5b91908080601f016020809104026020016040519081016040528093929190818152602001838380828437600081840152601f19601f82011690508083019250505050505050919291929050505061068f565b604051808215151515815260200191505060405180910390f35b60005481565b604080519081016040528060005481526020018281525060016000805481526020019081526020016000206000820151816000015560208201518160010190805190602001906104c8929190610787565b50905050600080815480929190600101919050555050565b6001602052806000526040600020600091509050806000015490806001018054600181600116156101000203166002900480601f0160208091040260200160405190810160405280929190818152602001828054600181600116156101000203166002900480156105925780601f1061056757610100808354040283529160200191610592565b820191906000526020600020905b81548152906001019060200180831161057557829003601f168201915b5050505050905082565b6000816040516020018082805190602001908083835b6020831015156105d757805182526020820191506020810190506020830392506105b2565b6001836020036101000a03801982511681845116808217855250505050505090500191505060405160208183030381529060405280519060200120836040516020018082805190602001908083835b60208310151561064b5780518252602082019150602081019050602083039250610626565b6001836020036101000a0380198251168184511680821785525050505050509050019150506040516020818303038152906040528051906020012014905092915050565b600080600090505b60005481101561077c576060600160008381526020019081526020016000206001018054600181600116156101000203166002900480601f01602080910402602001604051908101604052809291908181526020018280546001816001161561010002031660029004801561074d5780601f106107225761010080835404028352916020019161074d565b820191906000526020600020905b81548152906001019060200180831161073057829003601f168201915b5050505050905061075e848261059c565b1561076e57600192505050610782565b508080600101915050610697565b50600090505b919050565b828054600181600116156101000203166002900490600052602060002090601f016020900481019282601f106107c857805160ff19168380011785556107f6565b828001600101855582156107f6579182015b828111156107f55782518255916020019190600101906107da565b5b5090506108039190610807565b5090565b61082991905b8082111561082557600081600090555060010161080d565b5090565b9056fea165627a7a72305820eb7eaa96b2a042f8c5ca6c3553d2cb14957ee4425972483ef80b97cac205502f00296375466d31535668452b5649557567436348772b7a4e66356f75352b346873346633517465413937752f47632f626c356c6f4f365571357762322b356a6f6c2f795030464c654b482f3067682b6750576b34634f636b7458707749414c6569674c2f77555a394e4b416979566d3666352b42573736766f6946503467522f444e514c5676714670456b322f70414746785334426b544a36386c5a6b73375a68643736637a43445955494c6b4230486476444b6f6370377a574e4178784c32626764494771547353783477456b756950432b64664f504d7a37654f52347455574567366563634864565a4c727958684d66737a3434497a726443377a6953495a7250786c475a75362b2b4a2b2f7a69707343484274594b44646c65437048643668616b503859685566466a6237466d4f525272756d76586a74467255696266756c4a6a62385a47674f347163724c536a322f386b5849773d3d3b636235634b4f5a53596432417859524d4f3839436e5a4234494e62655a6c4b715662744c426b644b42784a5a572f5265765049786f655038546c45553158494b714a39516f5131425374684138722b6c4653395677655a7047346a737962786576575145585233775872476e4646694d4c365349682b376650716d4a6b554c76574a467a4d734b747250363867484d514743637a38686e2b4a54745972553846354c566b2f3055635147654766717837347a64644834424552754843376d38322b2f4a4530506f446261424d477232744175493776353854554656325a6d7a6c397973764b6b2b4d366d68396f4a54684f79733953412b664b677152506d6a623841374d6c69745073335070356d774e71784f77664750396761555237734f664c45354c374438355a4e56615774434f57386c446b5733335a374d4b354d6564676c694d31757264642f54374745786939544b5141413d3d3b623069307656384c47314d36496948505256495532413d3d3b30693633537878613533676266554e676167456d622b73704d4b626653616677714f61386e537236526935586939464747384134754d5352546c553764677a6e64597342436d425457397558475076734d6753737747554c4c316d70586550512b316279433736774b76486956484574615558555475743358497979396d7575437647454945714158537a36304c33657353767849504773696f465837715439793036416b3668426876644979786c4d4539436a6e2f75673679422b346f4236794d46696b746b4b6a586268754974454a59706638513d3d",
  "source": "pragma solidity ^0.5.0;\n\ncontract CovidVacPass {\n    uint public VacPassCount = 0;\n\n    struct Pass\n    {\n        uint id;\n        string content;\n    }\n\n    mapping(uint => Pass) public passes;\n    constructor() public{\n\n        //Initial passes:\n        addPass(\"cuFm1SVhE+VIUugCcHw+zNf5ou5+4hs4f3QteA97u/Gc/bl5loO6Uq5wb2+5jol/yP0FLeKH/0gh+gPWk4cOcktXpwIALeigL/wUZ9NKAiyVm6f5+BW76voiFP4gR/DNQLVvqFpEk2/pAGFxS4BkTJ68lZks7Zhd76czCDYUILkB0HdvDKocp7zWNAxxL2bgdIGqTsSx4wEkuiPC+dfOPMz7eOR4tUWEg6eccHdVZLryXhMfsz44IzrdC7ziSIZrPxlGZu6++J+/zipsCHBtYKDdleCpHd6hakP8YhUfFjb7FmORRrumvXjtFrUibfulJjb8ZGgO4qcrLSj2/8kXIw==;cb5cKOZSYd2AxYRMO89CnZB4INbeZlKqVbtLBkdKBxJZW/RevPIxoeP8TlEU1XIKqJ9QoQ1BSthA8r+lFS9VweZpG4jsybxevWQEXR3wXrGnFFiML6SIh+7fPqmJkULvWJFzMsKtrP68gHMQGCcz8hn+JTtYrU8F5LVk/0UcQGeGfqx74zddH4BERuHC7m82+/JE0PoDbaBMGr2tAuI7v58TUFV2Zmzl9ysvKk+M6mh9oJThOys9SA+fKgqRPmjb8A7MlitPs3Pp5mwNqxOwfGP9gaUR7sOfLE5L7D85ZNVaWtCOW8lDkW33Z7MK5MedgliM1urdd/T7GExi9TKQAA==;b0i0vV8LG1M6IiHPRVIU2A==;0i63Sxxa53gbfUNgagEmb+spMKbfSafwqOa8nSr6Ri5Xi9FGG8A4uMSRTlU7dgzndYsBCmBTW9uXGPvsMgSswGULL1mpXePQ+1byC76wKvHiVHEtaUXUTut3XIyy9muuCvGEIEqAXSz60L3esSvxIPGsioFX7qT9y06Ak6hBhvdIyxlME9Cjn/ug6yB+4oB6yMFiktkKjXbhuItEJYpf8Q==\");\n    \n    }\n    function addPass(string memory _pass) public{\n        passes[VacPassCount] = Pass(VacPassCount, _pass);\n        VacPassCount++;\n\n    }\n\n    function scanForPass(string memory _content) public view returns (bool) {\n    for (uint i=0; i<VacPassCount; i++) {\n    string memory contentBuffer = passes[i].content;\n    if (compareStrings(_content,contentBuffer)) {\n    return true;\n    }\n    }\n    return false;\n    }\n\n\n    function compareStrings(string memory a, string memory b) public view returns (bool) {\n    return (keccak256(abi.encodePacked((a))) == keccak256(abi.encodePacked((b))));\n}\n\n}\n",
  "sourcePath": "/home/elbatouri/covid-blockchain/contracts/CovidVacPass.sol",
  "compiler": {
    "name": "solc",
    "version": "0.5.1+commit.c8a2cb62.Emscripten.clang"
  },
  "schemaVersion": "3.0.1",
  "updatedAt": "2021-11-25T02:38:43.585Z",
  "devdoc": {
    "methods": {}
  },
  "userdoc": {
    "methods": {}
  }
}